:020000021000EC
:10C0000000000220F9C2010021C3010045320200F4
:10C0100025C3010027C3010029C30100000000005F
:10C020000000000000000000000000002BC3010021
:10C030002DC30100000000002FC3010031C3010027
:10C04000E5C7010033C30100F5C7010033C3010098
:10C0500033C3010033C301000544020033C30100B0
:10C0600033C3010033C3010033C3010033C30100F4
:10C0700033C3010033C3010033C3010033C30100E4
:10C0800033C301003132020033C3010033C3010066
:10C0900033C3010033C3010033C3010033C30100C4
:10C0A00033C3010033C3010033C3010033C30100B4
:10C0B00033C3010033C30100000000000000000092
:10C0C00033C3010033C3010033C3010033C3010094
:10C0D00033C3010033C3010033C301009DDA010003
:10C0E00033C3010033C3010033C30100000000006B
:10C0F0000000000033C301000000000033C3010052
:10C10000000000000000000000000000000000002F
:10C11000000000000000000000000000000000001F
:10C12000000000000000000000000000000000000F
:10C1300000000000000000000000000000000000FF
:10C1400000000000000000000000000000000000EF
:10C1500000000000000000000000000000000000DF
:10C1600000000000000000000000000000000000CF
:10C1700000000000000000000000000000000000BF
:10C1800000000000000000000000000000000000AF
:10C19000000000000000000000000000000000009F
:10C1A000000000000000000000000000000000008F
:10C1B000000000000000000000000000000000007F
:10C1C000000000000000000000000000000000006F
:10C1D000000000000000000000000000000000005F
:10C1E000000000000000000000000000000000004F
:10C1F000000000000000000000000000000000003F
:10C200000348044B834202D0034B03B118477047E5
:10C2100090120020901200200000000005480649FE
:10C220000B1AD90F01EBA301491002D0034B03B144
:10C230001847704790120020901200200000000064
:10C2400010B5064C237843B9FFF7DAFF044B13B15E
:10C250000448AFF300800123237010BD5013002069
:10C2600000000000E46D020008B5044B1BB1044956
:10C270000448AFF30080BDE80840CFE700000000AD
:10C2800054130020E46D0200A3F5803A704700BF0C
:10C29000154B002B08BF114B9D46FFF7F5FF002102
:10C2A0008B460F461148124A121A08F09DFE0C4B9D
:10C2B000002B00D098470B4B002B00D09847002054
:10C2C000002104000D000B4808F09CFD08F0CEFD95
:10C2D0002000290008F078FD08F09AFD0000080011
:10C2E00000000000000000000000022050130020A9
:10C2F0007C200020394E02000649074A074B9B1A52
:10C3000003DD043BC858D050FBDC02F087FCFFF78C
:10C31000BFFF0000DC6E02009811002050130020C7
:10C32000FEE7FEE7FEE7FEE7FEE7FEE7FEE7FEE7E5
:10C33000FEE7FEE710B568B90E4CA36801226270F3
:10C340003BB1D3E900230020A2609847A368002BEB
:10C35000F7D110BD0128FCD1064C2369A070002B39
:10C36000F7D0D3E900230120226198472369002BED
:10C37000F7D110BD6C130020014B1878704700BF37
:10C380006C13002010B50D4C237882B043B185208A
:10C390000B4BD3F800340BB10123A37002B010BDD6
:10C3A00008486360A3602361E36000F0BDF801907A
:10C3B00000F0C6F8012301982370E9E76C13002010
:10C3C0000000014035C3010038B5154DAB78044677
:10C3D00073B110B1436801209847002006F0B2FD08
:10C3E000EB680133EB600020BDE8384006F0B2BDD9
:10C3F00003F0FF0006F0A6FD64B12A6942B1944241
:10C4000008D0134601E09C4204D01B68002BFAD1EF
:10C4100022602C61EB68002BE2D100F0A7F8DFE787
:10C420006C1300204FF08043D3F81804C0F3004091
:10C43000704700BF38B5154D6B78044673B110B125
:10C44000436800209847002006F07CFD6B680133AC
:10C450006B600020BDE8384006F07CBD03F0FF00B3
:10C4600006F070FD64B1AA6842B1944208D0134648
:10C4700001E09C4204D01B68002BFAD12260AC6022
:10C480006B68002BE2D100F089F8DFE76C13002025
:10C4900038B50B4C002006F055FD6368013B636026
:10C4A000656825B1BDE83840002006F053BD00F0B6
:10C4B00087F865700020BDE8384006F04BBD00BF2E
:10C4C0006C13002010B5074C23784BB9064B00289D
:10C4D00008BF184600F0CEF808B90123237010BD3C
:10C4E000852010BD801300201C60020000B583B0C1
:10C4F000019000F0F3F800F0F9F8019800F0E0F88E
:10C5000000F0E4F8002003B05DF804FB10B403462B
:10C5100053E8000F00EA010243E8002494F0000F02
:10C52000F6D15DF8044B7047044A137923B9012111
:10C530001060918018467047852070478413002052
:10C54000084B1A68D20704D4C02283F800230122C2
:10C550001A60054A4FF080410123C1F81835137065
:10C56000704700BF00E100E08C1F002010B4094BB1
:10C57000094A0021196083B01B680193019C4FF0A8
:10C58000804102200123C1F80403136003B05DF869
:10C59000044B70470401004008000040074B002294
:10C5A0001A6082B01B68019301994FF08043012209
:10C5B000C3F804231A6002B0704700BF00010040B6
:10C5C00010B40E490E484FF0804201230024C2F8F7
:10C5D000083383B00C600968019101990360D2F8B7
:10C5E0000C3403F00113B3F1011FF8D0054B002206
:10C5F0005A7103B05DF8044B704700BF0001004062
:10C60000040000408413002010B5174B1A6882B054
:10C6100062B10021154A19601B68507900934FF0F0
:10C6200080410123009CC1F8083398B1104B1A686F
:10C63000BAB100221A601B6801934FF080420221B8
:10C640000A4B0198C2F808131B68012002B0BDE82C
:10C6500010401847116853718847054B1A68002A23
:10C66000E7D102B010BD00BF0001004084130020DC
:10C6700004010040104A1378DBB910B403780F4965
:10C680004FF08044C3F34003C4F88035037803F0CF
:10C690000103C4F878350B68DB0704D4C02381F8A4
:10C6A000003301230B600123137000205DF8044B5D
:10C6B00070478520704700BF8D1F002000E100E01B
:10C6C000014B02681A607047941300204FF08043BA
:10C6D0004FF46072C3F80423704700BF4FF08043EB
:10C6E0004FF46072C3F80823704700BF014B00226B
:10C6F0001A6070479413002010B54FF0804386B045
:10C70000D3F80443620705D5D3F8082103F58473F1
:10C71000002A4ED1A30603D52A4B1A68002A3FD11E
:10C72000600603D5284B1A68002A2FD1210602D5AE
:10C73000264B1A680ABBE20502D5254B1A6892B946
:10C74000A3050ED5234B1A685AB100221A601A6845
:10C75000214B0592059A1B68022006B0BDE81040E7
:10C76000184706B010BD00221A601B4A1B680493CC
:10C7700001201368049A9847E2E700201860164ADF
:10C780001B6803931368039A9847D4E700221A6042
:10C79000124A1B68029301201368029A9847C5E762
:10C7A000002018600D4A1B6801931368019A98478E
:10C7B000B6E700221A600A4A1B6800931368009AC1
:10C7C0009847A7E714010040180100401C010040F1
:10C7D0002001004024010040941300209013002009
:10C7E0008C13002008B5FFF787FFBDE80840FFF76E
:10C7F0000BBF00BF30B56E4AD2F8043399058BB039
:10C8000067D5D2F82431002B63D00023C2F824313D
:10C81000D2F8243101934FF40171664B0198C2F8AC
:10C82000081393F8291009B90121516060490222C7
:10C830008DF81820D1F88024C1F880249869D9682F
:10C8400009920022CDE90710C3E90622D3E90014BA
:10C8500006A8A047564AD2F81C31C3B1554B5869B7
:10C86000196A88426AD993F8281001F0FF0000295C
:10C8700064D1C2F81C01D2F81C11039103999C6881
:10C88000186A196A205C01311962C2F81C05484A0D
:10C89000D2F84431DBB10021464BC2F84411D2F842
:10C8A000440193F829100090009809B1012111600A
:10C8B0009A6962B1586AD96800229A610122CDE969
:10C8C00007108DF8182006A8D3E9001290470BB086
:10C8D00030BD374AD2F804335B07BBD5D2F80831F4
:10C8E000002BB7D0334B996900293ED00021C2F804
:10C8F0000811D2F8081104910499D868596AD2F83D
:10C90000182542545A6A996901325A625A6A8A420F
:10C91000A0D1DA69002A31D0DD685C6A18699A61B1
:10C9200001210022D860DA615A628DF81810CDE931
:10C930000754D3E9001206A890478BE71C4A002150
:10C94000C2F81C11D2F81C210292029A5A69002ADC
:10C950009DD058699A688DF818100890596107920F
:10C9600006A8D3E90012904791E7C2F80811D2F85F
:10C97000080105900598D2F81825C7E793F82920F3
:10C9800012B90B4A01215160094A4FF40171C2F8F2
:10C990000813596ADA6808910024012007928DF87B
:10C9A0001800D3E900129C6106A8904752E700BF27
:10C9B000002000409813002030B44C68A34208D9EE
:10C9C000002545600968016093420CD0002030BC0E
:10C9D000704743600D6805600868E41A1844934284
:10C9E000C1E90004F2D1201E18BF012030BC7047FD
:10C9F00010B4D1E900439A4228BF1A46C0E9004268
:10CA0000D1E90030801A1344C1E90030003818BF62
:10CA100001205DF8044B70474B689A4228BF1A46C4
:10CA200062B10B68C0E90032D1E90030801A1344CA
:10CA3000C1E90030101E18BF012070471346F1E70E
:10CA400010B5094B09491A68094C82B0002301202E
:10CA50008DF804008DF80730ADF8053001A823707B
:10CA60000B70904702B010BDF0140020F4140020A9
:10CA7000C4130020704700BF00B583B00D4B0E49B2
:10CA800000228DF80420D3F82025ADF80620D3F835
:10CA9000C0040A4A0968136800280CBF4FF480706C
:10CAA0004FF00120034301A81360884703B05DF8ED
:10CAB00004FB00BF00700240F0140020CC130020E3
:10CAC000F8B54B680B4F934228BF13461D460C46E2
:10CAD00006461A460968384608F0ECF9C6E90075BA
:10CAE000D4E90030401B2B44C4E90030003818BFA3
:10CAF0000120F8BDF8140020F8B54B68934228BF18
:10CB000013460D461C4606465BB933607460D5E992
:10CB10000032121B2344C5E90032201E18BF012039
:10CB2000F8BD044F096838461A4608F0C3F9376063
:10CB3000ECE700BFF814002010B5184B1B68082B59
:10CB400082B002D1164B00221A60164B16499A7B0E
:10CB50000020032A08700AD01C687CB1134B012204
:10CB60001A60BFF36F8FBFF34F8F02B010BD6FF429
:10CB700080310F48FFF7CAFC02B010BD6FF480315E
:10CB80000B48FFF7C3FC0B4BADF8064006221B68B1
:10CB90008DF8042001A8984702B010BD30010010A4
:10CBA0001C7C0240D0130020C51300204C700240B2
:10CBB000C8130020F014002010B5274BD3F8004410
:10CBC000C3F8004482B0BFF36F8FBFF34F8FBFF342
:10CBD0006F8FBFF34F8FE1050ED5204B20491A68A8
:10CBE000022000238DF80730ADF805308DF80400E1
:10CBF000012301A80B709047A2050DD5174B1849CA
:10CC00001A68032000238DF804008DF80730ADF872
:10CC1000053001A80B70904763051AD5104B1A78A0
:10CC2000BAB10D4C0F48012100221A70C4F8081542
:10CC30000160BFF36F8FBFF34F8F084BADF8052036
:10CC400004211B688DF807208DF804100DEB0100FE
:10CC5000984702B010BD00BF00700240F0140020E1
:10CC6000C41300205870024070B53E4B93F9002069
:10CC70001C78002A82B01ADB3B4B3C491D680A68CD
:10CC800004F00F031033012000FA03F31A432B4280
:10CC90000A600AD1364B8DF8070006221B688DF812
:10CCA00006408DF8042001A8984702B070BD04F03A
:10CCB0000F01304B2D4833F81130026803F18043E7
:10CCC00003F51C3301258D401E682A4309B202601A
:10CCD000DEB100221A60BFF36F8FBFF34F8F264B78
:10CCE000802C1B6822D0082B08BF244B244808BF87
:10CCF0001A60244B03EB01120026927B0670032A74
:10CD00004FEA011129D05B583BB3174B1B682B40EE
:10CD1000CBD117498DF8073006220B688DF80640F5
:10CD20008DF8042001A8984702B070BD082B08BFF9
:10CD3000124B134908BF1A60134B93F89E20002032
:10CD4000032A087003D0D3F89030002BDDD16FF0A8
:10CD500001010548FFF7DAFBD7E7E9430248FFF78F
:10CD6000D5FBD2E7F4140020C8130020CC13002018
:10CD7000F01400204C600200300100101C7C0240C6
:10CD8000C513002060140020D01300202DE9F04FBF
:10CD9000DFF824B2DFF82892DBF80040D9F8003041
:10CDA000234089B000F0988013F0012400F09780B0
:10CDB00094FAA4F4002C00F09780B4FA84F70F2FB3
:10CDC0003D461DD8DFF8FCB10FFA87FA0BEB0A16C7
:10CDD0004FEA0A1AB2895BF80A30716806A89847C8
:10CDE00067F07F0801233C464FFA88F803FA07F7FB
:10CDF00008B94BF80A00FB43019305F008072AE045
:10CE00000123A7F1100503FA07F7634B5FFA85F8D2
:10CE100003EB0816FB43019315F0080344464FFA51
:10CE200085FA029369D145460022029205F5947372
:10CE30005A4A52F82330B28971683768039306A8BA
:10CE4000B847069A1AB1079A039B93427BD8029F70
:10CE5000D04600B93060524B1B68082B02D1514BB1
:10CE600082221A60D9F800200198B368079902401D
:10CE70000B44C9F800204C4AB360B8F1000F4FF0E2
:10CE800001031370069B47DB002F4ED0434AAD00D1
:10CE9000C2F8A0372823C2F8A4172B44DBB203F151
:10CEA000804303F51C3301221A60BFF36F8FBFF379
:10CEB0004F8F3E4A3E4B3F4913EA280838BF904601
:10CEC00038F8142002F1804202F51C3201E00B68B0
:10CED00013B91368002BFAD009B0BDE8F08F93FAAC
:10CEE000A3F4002C7FF469AF4FF0100A4FF0FF332A
:10CEF000294E0193D046254696E7284BD3F8C034F7
:10CF0000DA0347D53568B2897168029F06A8002305
:10CF1000A847D04625469CE777B3204AAD00C2F823
:10CF2000A0360423C2F8A416B7E705EB85029200E9
:10CF300002F1804202F51C32AD00C2F8003728230E
:10CF4000C2F80417A9E702240199B4731A48FFF73D
:10CF5000DDFA1A4B8DF8174006221B688DF81680F3
:10CF60008DF8142005A89847DBF80040D9F8003068
:10CF700023407FF419AFAFE705EB8502920002F181
:10CF8000804202F51C32AD00C2F800360423C2F81C
:10CF9000041682E745464EE7D01300200070024099
:10CFA000300100101C7C0240C51300206C600200A0
:10CFB0004C60020000710240C8130020F0140020F1
:10CFC000CC1300206014002010B5184B1B68082BF0
:10CFD00082B002D1164B00221A60164B164C93F801
:10CFE0005E200021032A217005D01B6D6BB1FFF775
:10CFF000CDFE02B010BD11486FF40011FFF786FAA4
:10D000002378002BF3D002B010BD6FF400110B4851
:10D01000FFF77CFA0A4B062105221B688DF80410E5
:10D02000ADF8062001A89847EAE700BF30010010DC
:10D030001C7C0240D0130020C5130020C813002020
:10D04000F0140020134B1B68082B02D1124B002256
:10D050001A60124B124993F88E200020032A0870A0
:10D0600002D0D3F8803003B1704700B56FF0807103
:10D0700083B00C48FFF74AFA0B4B062108221B68C5
:10D080008DF80410ADF8062001A8984703B05DF8AC
:10D0900004FB00BF300100101C7C0240D0130020B4
:10D0A000C5130020C8130020F014002000B5184B51
:10D0B0001B68082B83B002D1164B00221A60164B56
:10D0C000164993F81E210020032A087005D0D3F8D2
:10D0D000103153B103B05DF804FB6FF48071104858
:10D0E000FFF714FA03B05DF804FB6FF480710C488D
:10D0F000FFF70CFA0B4B062188221B688DF80410F1
:10D10000ADF8062001A8984703B05DF804FB00BF06
:10D11000300100101C7C0240D0130020C5130020F9
:10D12000C8130020F01400200B4B1B68082B02D101
:10D130000A4B00221A600A4B0A4993F89E200020ED
:10D14000032A087003D0D3F8903003B17047064823
:10D150006FF00101FFF7DAB9300100101C7C0240CA
:10D16000D0130020C5130020C81300200B4B1B68F0
:10D17000082B02D10A4B00221A600A4B0A4993F885
:10D180000E210020032A087003D0D3F8003103B128
:10D19000704706486FF08001FFF7B8B93001001002
:10D1A0001C7C0240D0130020C5130020C8130020AF
:10D1B0000B4B1B68082B02D10A4B00221A600A4B4A
:10D1C0000A4993F8AE200020032A087003D0D3F850
:10D1D000A03003B1704706486FF00201FFF796B91F
:10D1E000300100101C7C0240D0130020C513002029
:10D1F000C81300200B4B1B68082B02D10A4B0022DE
:10D200001A600A4B0A4993F8BE200020032A0870CE
:10D2100003D0D3F8B03003B1704706486FF0040173
:10D22000FFF774B9300100101C7C0240D0130020BD
:10D23000C5130020C81300200B4B1B68082B02D11C
:10D240000A4B00221A600A4B0A4993F8CE200020AC
:10D25000032A087003D0D3F8C03003B170470648E2
:10D260006FF00801FFF752B9300100101C7C02403A
:10D27000D0130020C5130020C81300200B4B1B68DF
:10D28000082B02D10A4B00221A600A4B0A4993F874
:10D29000DE200020032A087003D0D3F8D03003B179
:10D2A000704706486FF01001FFF730B930010010E9
:10D2B0001C7C0240D0130020C5130020C81300209E
:10D2C0000B4B1B68082B02D10A4B00221A600A4B39
:10D2D0000A4993F8EE200020032A087003D0D3F8FF
:10D2E000E03003B1704706486FF02001FFF70EB938
:10D2F000300100101C7C0240D0130020C513002018
:10D30000C81300200B4B1B68082B02D10A4B0022CC
:10D310001A600A4B0A4993F8FE200020032A08707D
:10D3200003D0D3F8F03003B1704706486FF04001E6
:10D33000FFF7ECB8300100101C7C0240D013002035
:10D34000C5130020C813002010B5174B1B68082B0D
:10D3500082B002D1154B00221A60154B154C9A7FF2
:10D360000021032A217005D01B696BB1FFF70EFD68
:10D3700002B010BD10486FF40031FFF7C7F82378F2
:10D38000002BF3D002B010BD6FF400310A48FFF754
:10D39000BDF80A4B062101221B688DF80410ADF878
:10D3A000062001A89847EAE7300100101C7C0240E3
:10D3B000D0130020C5130020C8130020F014002053
:10D3C00010B5174B1B68082B82B002D1154B0022F9
:10D3D0001A60154B154C93F86E200021032A21701A
:10D3E00005D01B6E6BB1FFF7D1FC02B010BD104829
:10D3F0006FF48001FFF78AF82378002BF3D002B096
:10D4000010BD6FF480010A48FFF780F8094A06232F
:10D4100012688DF80430ADF8063001A89047EBE7AC
:10D42000300100101C7C0240D0130020C5130020E6
:10D43000C8130020F014002010B5184B1B68082BEF
:10D4400082B002D1164B00221A60164B164C93F88C
:10D450007E200021032A217005D01B6F6BB1FFF7DE
:10D4600095FC02B010BD11486FF40001FFF74EF8B3
:10D470002378002BF3D002B010BD6FF400010B48ED
:10D48000FFF744F80A4B062107221B688DF80410A9
:10D49000ADF8062001A89847EAE700BF3001001068
:10D4A0001C7C0240D0130020C5130020C8130020AC
:10D4B000F014002010B5184B1B68082B82B002D165
:10D4C000164B00221A60164B164C93F82E200021A2
:10D4D000032A217005D01B6A6BB1FFF757FC02B01D
:10D4E00010BD11486FF48021FFF710F82378002B4E
:10D4F000F3D002B010BD6FF480210B48FFF706F89F
:10D500000A4B062102221B688DF80410ADF8062094
:10D5100001A89847EAE700BF300100101C7C0240D8
:10D52000D0130020C5130020C8130020F0140020E1
:10D5300010B5184B1B68082B82B002D1164B002285
:10D540001A60164B164C93F83E200021032A2170D6
:10D5500005D01B6B6BB1FFF719FC02B010BD114871
:10D560006FF40021FEF7D2FF2378002BF3D002B036
:10D5700010BD6FF400210B48FEF7C8FF0A4B0621CF
:10D5800003221B688DF80410ADF8062001A8984707
:10D59000EAE700BF300100101C7C0240D0130020DD
:10D5A000C5130020C8130020F014002010B5184B3C
:10D5B0001B68082B82B002D1164B00221A60164B52
:10D5C000164C93F84E200021032A217005D01B6CC5
:10D5D0006BB1FFF7DBFB02B010BD11486FF4801197
:10D5E000FEF794FF2378002BF3D002B010BD6FF448
:10D5F00080110B48FEF78AFF0A4B042206211B68A4
:10D600008DF80410ADF806200DEB02009847E9E70D
:10D61000300100101C7C0240D0130020C5130020F4
:10D62000C8130020F01400202DE9F047524BD3F826
:10D630006C44C3F86C4482B0BFF36F8FBFF34F8F5D
:10D640004E4E04B34E4DDFF854814E4F94FAA4F180
:10D6500001B3B1FA81FCBCF10F0F614629DD4A4BE1
:10D66000D8F800201868012303FA0CFC103942EAAC
:10D670000C021CEA000FC9B224EA0C04C8F800200E
:10D6800009D0002CE2D133780BB9FFF77FFB02B051
:10D69000BDE8F0871021012306228DF807308DF8B0
:10D6A00006102B688DF8042001A89847002CCDD1D6
:10D6B000E9E70CF00F0E354AD8F8000032F81E20CA
:10D6C00002F1804202F51C32012303FA0CF91368BF
:10D6D00040EA090024EA0904C8F800004CF0800A76
:10D6E0007146D3B100231360BFF36F8FBFF34F8F29
:10D6F000274ABAF1800F126829D0082A08BF3B6078
:10D70000244B03EB0E120020927B3070032A4FEA69
:10D710000E1E14D053F80E308BB11B4B1B6819EA48
:10D720000303AED106228DF807308DF806A02B68D2
:10D730008DF8042001A89847002C87D1A3E7012386
:10D7400003FA01F1C9431048FEF7E0FEE5E7082AB5
:10D7500008BF3B60104B93F89E200021032A3170D4
:10D7600003D0D3F89030002BD7D16FF001010648D9
:10D77000FEF7CCFED1E700BF00700240C5130020C9
:10D78000F01400201C7C0240C81300204C600200F2
:10D790003001001060140020D0130020CC130020B2
:10D7A0002DE9F04F664C674E674F236896F90010DD
:10D7B0003A68DFF8AC9196F80080D9F88054DB43E2
:10D7C0009BB2002985B043EA020327DB08F00F0B68
:10D7D0000BF110024FF0010A0AFA02FA13EA0A0FDB
:10D7E00047D15A4F0DF10C0805F080056FF001117B
:10D7F00055483570FEF78AFE2368396800220525F2
:10D8000043F0010340468DF80F20ADF80D208DF850
:10D810000C502360884705B0BDE8F08F08F00F0A70
:10D820004FF0010909FA0AF913EA090FD9D00020CB
:10D8300005F088FB18F0080F10D1B8F1800F70D0F8
:10D840004349444A0AF2DA335B000B6013681168FB
:10D85000DBB243F002030B431360136823683A689A
:10D8600062EA030111EA090F21D1384F0DF10C08CA
:10D8700019E0002005F066FB3B6837483AEA0302EE
:10D8800000EB0B114FEA0B1E31D140F80E2022683D
:10D8900023EA0A0322EA0A023B60226003232B4F99
:10D8A0008B730DF10C08002005F054FB9CE72B490D
:10D8B0008DF80E804FEA0A1022EA090201EB0A1ADB
:10D8C0003A604FF0000C214F41F800C003220621BE
:10D8D0000DF10C0843EA09038AF80E208DF80F2099
:10D8E0008DF80C103A68236040469047DBE7002033
:10D8F000019105F027FB2368019923EA0A032360BD
:10D9000018F0080307D10BF5947B49F82B30BFF3CF
:10D910006F8FBFF34F8F0020019105F01BFB019922
:10D92000BCE70B4B0B4A40F2B471196013681168E5
:10D93000DBB243F004030B43136013688EE700BFB0
:10D94000CC130020F4140020C8130020F014002091
:10D950000078024004780240D013002060140020B8
:10D9600000700240F0B5044683B0002005F0EAFAEA
:10D97000220620D44149424A0B6804F00F0606F102
:10D9800010000125854035EA030C4FEA061E02EB24
:10D9900006174DD13B4842F80EC0026823EA050342
:10D9A00022EA05050B6005600323BB73002005F028
:10D9B000D1FA03B0F0BD230704F00F020FD4802C7E
:10D9C0004ED03148314902F2DA335B0003600B6814
:10D9D0000868DBB243F0020303430B600B68294D78
:10D9E000264E29683068012360EA010793401F42F0
:10D9F000DCD0274F8DF806404FEA021C20EA0300D6
:10DA000007EB02123060234C002047F80C000B4358
:10DA10000620032191738DF8071022688DF8040009
:10DA200001A82B609047002005F094FA03B0F0BDE8
:10DA3000002005F087FA134A136814F0080423EA5B
:10DA40000505156008D1144B06F5947643F8264079
:10DA5000BFF36F8FBFF34F8F002005F07BFAA3E772
:10DA6000094B0A4940F2B47018600B680868DBB2D1
:10DA700043F0040303430B600B68B0E7C8130020B6
:10DA8000D0130020CC13002000780240047802401C
:10DA900060140020F014002000700240F8B5294BFB
:10DAA000D3F80413002944D00024DFF8A8C0274687
:10DAB000012691FAA1F3244AB3FA83F085002A449F
:10DAC0003BB3156806FA00F321EA03012DB1176094
:10DAD000BFF36F8FBFF34F8F1C430029E9D104F4CC
:10DAE000000634F400040FD0184F012594FAA4F373
:10DAF000B3FA83F205FA02F18BB124EA010457F874
:10DB000022309847002CF1D1114B1B784BB166B9EC
:10DB1000F8BDDCF80020002ACBD06246D7E7984752
:10DB2000E4E7FFF733F9002EF2D0BDE8F840FFF745
:10DB300037BE074B1B78002BEAD1BDE8F840FFF752
:10DB400025B900BF007002400071024080600200F1
:10DB5000C51300208071024030B4464C2278002A60
:10DB600040F085804449454B08604FF400754021E2
:10DB70000120207083F89E20C3F89020C3F89820DD
:10DB800083F8AE20C3F8A020C3F8A82083F8BE20F5
:10DB9000C3F8B020C3F8B82083F8CE20C3F8C02063
:10DBA000C3F8C82083F8DE20C3F8D020C3F8D820FB
:10DBB00083F8EE20C3F8E020C3F8E82083F8FE20C5
:10DBC000C3F8F020C3F8F82083F80E21A3F89C10C6
:10DBD000A3F8AC10A3F8BC10A3F8CC10A3F8DC1089
:10DBE000A3F8EC10A3F8FC10A3F80C11C3F8002163
:10DBF000A3F81C51C3F8082183F81E21C3F8102193
:10DC0000C3F8182199819A731A609A6099839A7758
:10DC10001A619A61998583F82E201A629A6299870F
:10DC200083F83E201A639A63A3F84C1083F84E20C1
:10DC30001A649A64A3F85C1083F85E201A659A65EA
:10DC4000A3F86C1083F86E201A669A66A3F87C100D
:10DC500083F87E201A679A67A3F88C5083F88E2089
:10DC6000C3F88020C3F88820104630BC70470820D5
:10DC700030BC7047C6130020F0140020D0130020E1
:10DC80000249034A00230B6013707047F014002010
:10DC9000C613002038B5854B4FF40062C3F800244A
:10DCA000BFF36F8FBFF34F8F814B1B68082B00F0C2
:10DCB000A5807E4B0122C3F80025BFF36F8FBFF311
:10DCC0004F8FD3F800241205FBD54FF40062C3F840
:10DCD0000024BFF36F8FBFF34F8F754B1B68082B6A
:10DCE00039D0724A734D744871498024C2F81C457A
:10DCF000002340F2FF14C2F830352B6004600A683C
:10DD00006E4D6F4C6F49082A08BF6F4A4FF00200F2
:10DD100008BF13600023664A2B70237008701368D5
:10DD2000082B00D038BD694B1B68052B40F2908052
:10DD3000002005F007F9664B1A68002A40F095802C
:10DD4000644849F27531196002601960BDE83840D5
:10DD5000002005F0FFB8002005F0F4F85C4B1A68CD
:10DD6000002A7BD05C4B00221A60002005F0F2F8FC
:10DD70004F4A564B12681B68082AB2D1052B03D8AC
:10DD8000564AD35C002B2DD0002005F0DBF8504B19
:10DD90001A68002A7DD14F4849F275311960026036
:10DDA0001960002005F0D6F8414A484B12681B68FC
:10DDB000082A96D1052B74D9002005F0C3F8444BEE
:10DDC0001A68002A69D1434949F2753203201A6062
:10DDD00008601A60002005F0BDF8354B1B68082B61
:10DDE0007FF47FAF3E493F4B40F2E3704022086032
:10DDF0001A60BFF36F8FBFF34F8F72E7334B1B680F
:10DE0000052B14D8354AD35C8BB9002005F09AF85D
:10DE10002F4B1A68002A38D12F4949F27532C02099
:10DE20001A6008601A60002005F094F841E70020AD
:10DE300005F088F8264B1A68FAB1264B03221A60BF
:10DE4000002005F087F81A4B1B68082BDDD030E75F
:10DE5000224AD35C002B3FF465AF69E71E4849F2C4
:10DE600075311960026019607FE71A4B00221A6051
:10DE7000BDE83840002005F06DB8164949F275320A
:10DE800003201A6008601A60DAE7134BC0221A6098
:10DE9000C9E7104B00221A6083E70E4B03221A6079
:10DEA00098E70E4AD35C002B86D19BE700700240B6
:10DEB00030010010C8130020CC130020C51300202F
:10DEC000F4140020C61300201C7C02403401001012
:10DED00000EC064014ED064014EC064038600200E9
:10DEE00000780240047802402DE9F04F7B4B8022FD
:10DEF000C3F884215B681B0683B01AD4784B0022D8
:10DF0000D3F80413C3F80813C3F80025BFF36F8FC9
:10DF1000BFF34F8F734B74491B68082B04BF734BBF
:10DF20001A60734B0020012208701A7003B0BDE81C
:10DF3000F08F704D704E2B6832684FEA134A4FEAEB
:10DF40000A4A5AEA020A19D06C4F9AFAAAF4002C2B
:10DF500000F09180B4FA84FBBBF10F0F45DDABF10B
:10DF60001003DCB213F0080F4FF0010303FA0BFBB0
:10DF70002AEA0B0A1AD0BAF1000FE6D1584B40F248
:10DF8000FF1100222960C3F80425BFF36F8FBFF390
:10DF90004F8F524A8021C2F88410BFF34F8FBFF3D6
:10DFA0006F8F4FF0FF32C3F80823A7E7544B6FEA97
:10DFB0000B0903EB0418002004F0C4FF33683BEAAC
:10DFC000030069D12968C8F8000001EA090203EAE0
:10DFD000090030602A60032288F80E20002004F037
:10DFE000B9FFBAF1000FB0D1C8E71BF0080049D162
:10DFF0004BF0800804F0A6FFB8F1800F0BF00F047F
:10E000005ED0404904F2DA335B000B603B6839684C
:10E01000DBB243F002030B433B603B68D5F800C022
:10E0200030684FF0010960EA0C0E09FA04F11EEAAB
:10E03000010F1BD0344B8DF80680220120EA01002D
:10E0400003EB04144CEA010130604FF0000C2F4840
:10E0500043F802C003224FF0060CA2738DF807208C
:10E060008DF804C00268296001A8904709FA0BFBEB
:10E070002AEA0B0AB2E7DFF888806FF480394FF4A0
:10E08000803B98E7012303FA0BFB2AEA0B0ABAF15B
:10E09000000F7FF45AAF71E7002004F053FF2968A6
:10E0A0000F4B04F5947401EA09010020296043F83C
:10E0B0002400BFF36F8FBFF34F8F04F04BFF8AE74D
:10E0C000104B40F2B47119603B683968DBB243F021
:10E0D00004030B433B603B68A0E700BF00E100E0A6
:10E0E0000070024030010010C51300201C7C02406B
:10E0F000C6130020CC130020C8130020047802406F
:10E10000D01300200078024060140020F01400209A
:10E1100030B40D4B0D4D0E4C0E4A0F4900280CBF6C
:10E12000184628460025C0232570C2F8040381F84C
:10E13000273380234B600123C2F80435BFF36F8F70
:10E14000BFF34F8F30BC70470714C0010714E001C4
:10E15000C41300200070024000E100E0704B8022F8
:10E16000C3F884215B681B0600D470472DE9F04F8B
:10E170006C4D6D4E2B6832684FEA134A4FEA0A4ADB
:10E180005AEA020A83B019D0684F9AFAAAF4002C0E
:10E1900000F09380B4FA84FBBBF10F0F47DDABF1C5
:10E1A0001003DCB213F0080F4FF0010303FA0BFB6E
:10E1B0002AEA0B0A1CD0BAF1000FE6D15C4B40F200
:10E1C000FF1100222960C3F80425BFF36F8FBFF34E
:10E1D0004F8F534A8021C2F88410BFF34F8FBFF393
:10E1E0006F8F4FF0FF32C3F8082303B0BDE8F08F04
:10E1F000504B6FEA0B0903EB0418002004F0A2FE59
:10E2000033683BEA030069D12968C8F8000001EAD5
:10E21000090203EA090030602A60032288F80E2010
:10E22000002004F097FEBAF1000FAED1C6E71BF054
:10E23000080049D14BF0800804F084FEB8F1800F4B
:10E240000BF00F045ED03C4904F2DA335B000B6044
:10E250003B683968DBB243F002030B433B603B6829
:10E26000D5F800C030684FF0010960EA0C0E09FAD9
:10E2700004F11EEA010F1BD0304B8DF806802201FD
:10E2800020EA010003EB04144CEA010130604FF076
:10E29000000C2B4843F802C003224FF0060CA27377
:10E2A0008DF807208DF804C00268296001A8904706
:10E2B00009FA0BFB2AEA0B0AB2E7DFF878806FF461
:10E2C00080394FF4803B98E7012303FA0BFB2AEADD
:10E2D0000B0ABAF1000F7FF458AF6FE7002004F08B
:10E2E00031FE2968124B04F5947401EA09010020FB
:10E2F000296043F82400BFF36F8FBFF34F8F04F002
:10E3000029FE8AE70C4B40F2B47119603B6839680A
:10E31000DBB243F004030B433B603B68A0E700BF64
:10E3200000E100E0CC130020C81300200478024074
:10E3300000700240D01300200078024060140020DA
:10E34000F0140020024B1878003818BF01207047E5
:10E35000C6130020034B1878012894BF0020012029
:10E36000704700BFC6130020044B1B78012B83BFEE
:10E37000034B5868C0F3C01000207047C61300203C
:10E3800000E100E02DE9F04F002083B004F0DAFD59
:10E390006D4B1B783BB90027002004F0DBFD3846AD
:10E3A00003B0BDE8F08F694EDFF8B881346803F040
:10E3B000FF07240CD8F8003024041C4316D094FA2C
:10E3C000A4F5002D00F08D80B5FA85FABAF10F0F93
:10E3D00040DDAAF110034FF0010909FA0AF9180704
:10E3E000DDB224EA090415D5002CE8D140F2FF1370
:10E3F000574A3360D2F8003413F40073CBD10121B3
:10E40000C2F82C15D2F80014890544BFC2F82C3587
:10E410001F46C1E74F4B6FEA090B03EB051A0020BB
:10E4200004F090FDD8F8002039EA02036AD131687F
:10E43000CAF8003002EA0B0201EA0B01C8F800201A
:10E44000316003238AF80E30002004F083FD002C95
:10E45000B5D1CBE71AF008004AD14AF0800B04F09E
:10E4600071FDBBF1800F0AF00F055FD03A4A3B49BE
:10E4700005F2DA335B0013600B680A68DBB243F025
:10E48000020313430B600B683168D8F800204FF08B
:10E49000010962EA010009FA05F318421CD030486C
:10E4A000DFF8C4E08DF806B022EA03024FEA051C4B
:10E4B000C8F8002000EB0515002240F80C200B43A3
:10E4C00003220621AA738DF807208DF80410DEF8C8
:10E4D0000020336001A8904709FA0AF924EA0904E8
:10E4E000B2E7DFF870A06FF4803B4FF4803996E715
:10E4F0004FF0010909FA0AF924EA0904002C7FF413
:10E500005EAF73E7002004F01DFD336803EA0B03E0
:10E51000336005F594750E4B002043F82500BFF3DA
:10E520006F8FBFF34F8F04F015FD8AE70A4B0B493D
:10E5300040F2B4721A600B680A68DBB243F004035D
:10E5400013430B600B689FE7C4130020CC1300201B
:10E5500000700240D013002000780240047802408E
:10E5600060140020C8130020F014002010B5002013
:10E5700004F0E8FC144B1B7803F0FF0453B1134A7A
:10E58000D2F82C355BB1124B1B680021082BC2F866
:10E590002C150AD0002004F0DDFC204610BD1C46DE
:10E5A000002004F0D7FC204610BD0A4B1A683AB987
:10E5B000094949F27532C0201A6008601A60E9E71B
:10E5C000054BC0221A60E5E7C4130020007002402A
:10E5D0003001001000EC064014EC0640024B034AE8
:10E5E000C3F80823704700BF007002400414800184
:10E5F000024B034AC3F80423704700BF0070024077
:10E6000004148001014B00221A707047C4130020CB
:10E61000064B10F0800FA3F1900200F00F0008BF2E
:10E62000134603EB00139889704700BF6014002065
:10E63000064A010600F00F034CBFD2F81005D2F8CD
:10E640001405D84000F00100704700BF0070024080
:10E6500070B545B2002D44DB2D4B2E4A00F00F045F
:10E66000195D012303FA01F1C2F80413D2F814155D
:10E67000E140C90734D4D2F81415A3400B43C2F8C3
:10E680001435BFF36F8FBFF34F8F4CB3002D27DBD3
:10E6900010F0080524D1284604F054FC284604F064
:10E6A00051FC1D491B480A6804F110060123B340C0
:10E6B00004F5947422EA03020A60DE4340F8245011
:10E6C000BFF36F8FBFF34F8F284604F043FC134A0C
:10E6D0001368334013602846BDE8704004F03ABC2C
:10E6E00070BD0F4B0B4A00F00F04195D012303FAB4
:10E6F00001F1C2F80413D2F81015E140CE07EFD4AF
:10E70000D2F81015A3400B43C2F81035B9E700BF8B
:10E710006060020000700240CC130020C81300208B
:10E72000406002002DE9F04147B282B0044600206B
:10E7300004F008FC002F3BDB5649574A0B6804F0F5
:10E740000F0505F110000126864036EA030C4FEA5A
:10E75000051E02EB051876D1504842F80EC002683B
:10E7600023EA060322EA06060B600660032388F804
:10E770000E30002004F0EEFB49490122D1F8143597
:10E78000AA4023EA0203C1F81435BFF36F8FBFF329
:10E790004F8F444B444A424912EA270238BF1A4677
:10E7A0000123525D9340C1F8083302B0BDE8F08107
:10E7B00004F00F0C230765460FD4802C5BD03B4937
:10E7C0003B4A0CF2DA335B000B6013681168DBB272
:10E7D00043F002030B4313601368DFF8C0E02D48D9
:10E7E000DEF800200168012361EA020603FA0CF357
:10E7F0001E4226D02F4E8DF806404FEA0C1821EA13
:10E8000003012D4C016006EB0C1C002146F808109A
:10E81000062003211A438CF80E108DF807108DF88E
:10E8200004002168CEF8002001A8DC4388470020BE
:10E8300004F090FB1A4AD2F810352340C2F8103584
:10E84000A3E7DC43F3E7002004F07CFB134A1368E2
:10E8500014F0080423EA0606166008D1104B05F5EB
:10E86000947243F82240BFF36F8FBFF34F8F0020A5
:10E8700004F070FB7AE70D4B0D4A40F2B471196059
:10E8800013681168DBB243F004030B431360136891
:10E89000A3E700BFC8130020D0130020CC13002032
:10E8A0000070024060600200406002000078024098
:10E8B0000478024060140020F01400202DE9F0419B
:10E8C0004FFA80F8B8F1000F00F00F0504464FF042
:10E8D0000000B4BF074610270E4604F033FB55B9BD
:10E8E000324B1B78A34206D01024002004F032FBE8
:10E8F0002046BDE8F0812E4BDFF8DCC01C68DCF858
:10E900000030E4432F440122A4B202FA07F71C436B
:10E910003C4025D1B8F1000F29DB264A2649DFF813
:10E92000BC80280105EB450E42F8008001EB8E0EFD
:10E9300002EB051896E80700204D1F4380260023B0
:10E940008EE80700C8E901E3CCF8007088F80E30C3
:10E950000020C5F8046104F0FDFA2046BDE8F0810E
:10E960001124002004F0F6FA2046BDE8F081326858
:10E970001349144802F0604205EB450EB2F1005F06
:10E9800001EB051800EB8E0E4FEA051506D0B268B4
:10E99000D20754BF0C4A0D4A4A51CBE7B268D007A0
:10E9A00054BF0B4A0B4A4A51C4E700BFF41400207D
:10E9B000CC130020D0130020FC1F002000E100E059
:10E9C00060140020901F0020C1CA0100F9CA010094
:10E9D000F1C9010019CA0100C8130020B9C901001A
:10E9E0002DE9F04147B2002F00F00F0504464FF02B
:10E9F0000000B4BF80464FF010080E4604F0A2FAA3
:10EA000055B91F4B1B78A34206D01024002004F0F8
:10EA1000A1FA2046BDE8F0811A4B1B491C680A6820
:10EA2000E443A8440123A4B203FA08F314431C40AE
:10EA30001FD11648DFF858E0A0F1900C10EA270724
:10EA400038BF674607EB051C2D01CCF8084030683D
:10EA5000785113430B607268CCF8042080238CF843
:10EA60000E400020CEF8043104F074FA2046BDE8D0
:10EA7000F0811124002004F06DFA2046BDE8F081F9
:10EA8000F4140020CC130020C813002060140020D0
:10EA900000E100E000487047F8140020044B40F407
:10EAA0008070C3F81805BFF36F8FBFF34F8F7047A7
:10EAB0000070024003062DE9F04104460FD410F027
:10EAC00008070CD100F00F05AD0005F1804505F5F4
:10EAD0001C3500F00F08D5F84464012E08D00F4B08
:10EAE000C3F81845BFF36F8FBFF34F8FBDE8F081B8
:10EAF000384604F027FA0A4AC5F8A074136808F1EA
:10EB0000100806FA08F623EA06061660BFF36F8FB0
:10EB1000BFF34F8F384604F01DFAE0E70070024063
:10EB2000CC130020010718D4020600F00F0309D40B
:10EB30000B4A9B001A445068A0F10100B0FA80F023
:10EB400040097047074A03F5847352F82300A0F187
:10EB50000100B0FA80F0400970470020704700BF04
:10EB60004074024000700240064BC3F80C05BFF32E
:10EB70004F8F40F48070C3F80C05BFF36F8FBFF365
:10EB80004F8F70470070024010B5082200210446E4
:10EB900006F02AFA0E4BD3F880242270D3F884248E
:10EBA0006270D3F88824D3F88C1442EA0122628080
:10EBB000D3F89024D3F8941442EA0122A280D3F827
:10EBC0009824D3F89C3442EA0323E38010BD00BFAD
:10EBD00000700240034B01221A60BFF36F8FBFF336
:10EBE0004F8F70474C700240034B01221A60BFF3F5
:10EBF0006F8FBFF34F8F704750700240034B01225D
:10EC00001A60BFF36F8FBFF34F8F7047547002408D
:10EC1000014B1878704700BFF414002010B4814BEA
:10EC20001B68082B21D0804AD2F8883043F4700347
:10EC3000C2F88830BFF34F8FBFF36F8F794B1B68DB
:10EC4000082B00F0AA804FF01023D3F80022002AEE
:10EC5000C0F2B680D3F80432002BC0F2B180734BFF
:10EC6000734A1A605DF8044B70474FF080414FF0D3
:10EC700080520020C1F80C016E4BC1F81001C1F8A0
:10EC80003805D2F80414C3F82015D2F80814C3F8D4
:10EC90002415D2F80C14C3F82815D2F81014C3F8B0
:10ECA0002C15D2F81414C3F83015D2F81814C3F880
:10ECB0003415D2F81C14C3F84015D2F82014C3F848
:10ECC0004415D2F82414C3F84815D2F82814C3F810
:10ECD0004C15D2F82C14C3F85015D2F83014C3F8E0
:10ECE0005415D2F83414C3F86015D2F83814C3F8A8
:10ECF0006415D2F83C04C3F868054F49D2F84004C3
:10ED0000C3F86C050968D2F84424C3F870250529B6
:10ED100037D84A4B5B5C13B1494B4A4A1A604A4B9D
:10ED20005B5C63B13F4B49491B68434AFB20C1F818
:10ED30001805082B11687FF476AF052921D8444BBC
:10ED40005B5C93B14348444B364C02681B682468B3
:10ED5000394922F00F0203F00F031343082C09680E
:10ED600003607FF460AF05290BD83C4B5B5C43B17B
:10ED70002C4B3B4A1B684FF40071082B11607FF449
:10ED800052AF4FF08043D3F80024D2077FF54BAF4A
:10ED90006FF00102C3F8002445E7274B1B68052BE1
:10EDA00008D94FF010224FF08043D2F80822C3F860
:10EDB000582548E72B4AD35C002B3FF444AFF0E7DB
:10EDC000294A0123C2F80435D2F80034002BFBD0C5
:10EDD0004FF010231221244AC3F80012D2F8003455
:10EDE000002BFBD04FF0102312211F4AC3F804124E
:10EDF000D2F80034002BFBD000231B49C2F80435A5
:10EE0000D1F80034002BFBD0BFF34F8F0649174BCE
:10EE1000CA6802F4E0621343CB60BFF34F8F00BFB8
:10EE2000FDE700BF3001001000ED00E09811002068
:10EE30000090D00300C0004034010010EC600200DC
:10EE40008C56004048810300EC60020000F0004056
:10EE5000EC600200E40E004058020010EC6002007A
:10EE600040960240E460020000E001400400FA0520
:10EE70002DE9F84F1F4B204800221A7004F01AFCAD
:10EE8000824610B15046BDE8F88FDFF880801B4EF7
:10EE90001B48A6EB080604F0F1FCF608F2D0DFF8F8
:10EEA00068B0554600273C4608EBC509A5424FF01F
:10EEB000140208D058F83410D9F8000006F0EEF922
:10EEC0000028C8BF01370134A642EFD12BF82570C6
:10EED0000135AE42E6D10B4B0B4A03EB860600210F
:10EEE00043F8041BB342518002F10402F8D15046AA
:10EEF000BDE8F88F08160020B86E0200A86E020068
:10EF000080610200F012002090120020E86D0200E3
:10EF100099B10E4B0E495B1ADB0815D030B40022B4
:10EF20000C4D02E0013293420BD035F8224084426E
:10EF3000F8D151F8320030BC7047054951F8300023
:10EF40007047002030BC704718467047A86E02001A
:10EF5000E86D020090120020094B013903EBC0005C
:10EF600003290BD8DFE801F00402080604207047EB
:10EF70000220704740797047007970470020704741
:10EF8000E86D0200704700BF2DE9F047974CD4E9C7
:10EF900001239A4284B064D00023C4F81834BFF32C
:10EFA0004F8FA568EAB2D31C04EB830114F8233019
:10EFB000580718D566680B7803F00303012B46D079
:10EFC000022B03D14B88023505EB9315EAB2D4F836
:10EFD0001804D31C04EB830128B9AE423DD914F8C0
:10EFE00023305B07E7D404EB82026B1CD2680192EA
:10EFF000DBB204EB830302F00302DB680293022A14
:10F0000005F1020731D0012A00F0A580D4F8105490
:10F010003DB12B6828469B689847EB681D68002D1A
:10F02000F7D1734B5B88012B09D97248724B734936
:10F03000C01AC008000440F0020000F0E7F8D4E96C
:10F040000130C01A18BF012004B0BDE8F0870B885A
:10F050000235C3F383131D44B8E7A66004B0BDE8CE
:10F06000F087002004B0BDE8F087BDF806306448A2
:10F070009DF80460C3F389194D46502D28BF5025D3
:10F0800065F38F1305F10801ADF8063004F014FBA9
:10F09000C6F3C20680460028B8D004F057FB002310
:10F0A00001A90822404604F081FBFB43DBB2013397
:10F0B000B5EB830F4FEA830AF9B240F28980A5EBE2
:10F0C0000A05033104EB8101082352464046EDB2A4
:10F0D00004F06CFB4B492A460AF10803404604F051
:10F0E00065FB09F1030907EB9907D4F81834002BE5
:10F0F00077D1D4F8105405B3DFF80CA14FF007090D
:10F10000EB685A79B2B11A79BDF8080002EB4201F6
:10F110005AF8200009FA01F2052E02EA000208BF9F
:10F120000326CA40964205D82B6841461B682846EC
:10F130009847EB681D68002DE2D1404604F00AFBB9
:10F14000002003F0FFFED4F8183403B9A7600020B4
:10F1500003F000FF73E7BDF804602948C6F383138A
:10F16000062B28BF0623991C63F389168900ADF886
:10F17000046004F0A1FAC6F3C206804600283FF4FA
:10F1800045AF04F0E3FA0023082201A9404604F049
:10F190000DFBBDF8043013F4707FA6D06FF00109A9
:10F1A000A9EB05090825F9B203312B46042204EB2B
:10F1B0008101404604F0FAFABDF80430013709EB4A
:10F1C0000702C3F38313934205F10405EBD88CE7E0
:10F1D00003312A4604EB81010823404604F0E6FA95
:10F1E0007FE7404604F0B6FA29E700BF0816002082
:10F1F000A0120020086E0200E86D020048610200C3
:10F20000B86E020014160020F01200202DE9F04F15
:10F210005D4C87B0064600200F4603F093FED4E90C
:10F22000015303F580735B1B012B7DD804F21C484E
:10F2300004F5836A04F214491AE0BDF80E30C3F3F2
:10F2400089130333090C0BEB930B4846019104F02F
:10F25000C9F90199002839D04046C4F808B004F033
:10F2600085F9D4E9013202F58072D21A012A5CD8FC
:10F270000121404604F07AF9504604F0A3F94846CB
:10F2800004F0A0F9A368DAB2D11C04EB810014F8F1
:10F29000211001F0040C490728D404EB8202591C08
:10F2A000D2680392C9B204EB810102F00302012A81
:10F2B000C96803F1020B30D0022ABED000214846B3
:10F2C000019104F08FF901990028C5D14046C6E7A5
:10F2D00043880EEB9313DAB2D11C04EB810014F8CF
:10F2E000211001F0040CBCF1000FD6D0017801F020
:10F2F000030101290BD0022903F1020E02F10301DF
:10F30000E6D004EB8100BCF1000FEFD1C5E7028825
:10F310000233C2F383121344DDE7BDF80C30C3F3AC
:10F320008313090C9B4490E72B46DAB20332023375
:10F330000521002044F82210636003F00BFE002139
:10F34000124804F005F980F31000F1006B1C01F085
:10F350003801DBB2EDB204EB830341F0010100049C
:10F36000033540EA164641EA8727DE6044F82570F7
:10F3700023781BB1FFF708FE0028FBD1FFF702FE40
:10F3800007B0BDE8F08F00BF08160020241A002047
:10F390002DE9F04F614C87B0064600200F4690469D
:10F3A00003F0D0FDD4E9015303F580735B1B022BFE
:10F3B0007FD804F21C4904F5836B04F2144A1BE065
:10F3C000BDF80E20C2F389120332090C03EB92033D
:10F3D0005046CDE9003104F005F9019900283AD0F2
:10F3E000009BA360484604F0C1F8D4E9013202F55D
:10F3F0008072D21A022A5DD80121484604F0B6F87C
:10F40000584604F0DFF8504604F0DCF8A368DAB29E
:10F41000D11C04EB810014F8211001F0040C490701
:10F4200029D404EB8202591CD2680392C9B204EBBE
:10F43000810102F00302012AC96803F1020331D0FD
:10F44000022ABDD000215046CDE9003104F0CAF8AF
:10F4500001990028C4D14846C5E743880EEB9313B1
:10F46000DAB2D11C04EB810014F8211001F0040C75
:10F47000BCF1000FD5D0017801F0030101290BD0B8
:10F48000022903F1020E02F10301E6D004EB810030
:10F49000BCF1000FEFD1C4E702880233C2F383123C
:10F4A0001344DDE7BDF80C20C2F38312090C1344AA
:10F4B0008EE72B46DAB2033203334521002044F8AD
:10F4C0002210636003F046FDAB1CDBB204EB830348
:10F4D00000211348C3F80C8004F03AF880F31000C0
:10F4E000F1006B1C01F03801DBB2EDB204EB8303D9
:10F4F00041F041010004033540EA164641EA8727FE
:10F50000DE6044F8257023781BB1FFF73DFD00282D
:10F51000FBD1FFF737FD07B0BDE8F08F08160020DC
:10F52000241A00202DE9F04F694C89B006460020CE
:10F530001F468846039203F005FDD4E9015303F505
:10F5400080735B1B042B00F2828004F21C4904F5DB
:10F55000836B04F2144A1BE0BDF81620C2F3891233
:10F560000332090C03EB92035046CDE9013104F05C
:10F5700039F8029900283BD0019BA360484603F06C
:10F58000F5FFD4E9013202F58072D21A042A5FD85D
:10F590000121484603F0EAFF584604F013F85046AC
:10F5A00004F010F8A368DAB2D11C04EB810014F85F
:10F5B00021C01CF0040F0CF0040128D104EB8202DE
:10F5C000591CD2680592C9B204EB810102F0030212
:10F5D000012AC96803F1020332D0022ABCD00021FB
:10F5E0005046CDE9013103F0FDFF02990028C3D157
:10F5F0004846C4E743880EEB9313DAB2D11C04EB00
:10F60000810014F8211001F004010029D6D090F8EF
:10F6100000C00CF0030CBCF1010F0BD0BCF1020FC9
:10F6200003F1020E02F1030CE4D004EB8C0000297C
:10F63000EDD1C3E702880233C2F383121344DCE73F
:10F64000BDF81420C2F38312090C13448CE72B4637
:10F65000DAB203320533C521002044F8221063607A
:10F6600003F078FCA81CEA1C2B1DC0B2DBB204EB33
:10F670008000D2B204EB830C04EB8202039BC360D4
:10F680000021129B1348D760CCF80C3003F060FFC8
:10F6900080F31000F1006B1C01F03801DBB2EDB219
:10F6A00004EB830341F0C1010004033540EA164630
:10F6B00041EA8821DE6044F8251023781BB1FFF76A
:10F6C00063FC0028FBD1FFF75DFC09B0BDE8F08FBB
:10F6D00008160020241A00202DE9F04F6F4C89B045
:10F6E000064600201F468846039203F02BFCD4E90F
:10F6F000015303F580735B1B052B00F2828004F23B
:10F700001C4904F5836B04F2144A1BE0BDF8162073
:10F71000C2F389120332090C03EB92035046CDE980
:10F72000011303F05FFF019900283BD0029BA36007
:10F73000484603F01BFFD4E9013202F58072D21A69
:10F74000052A5FD80121484603F010FF584603F010
:10F7500039FF504603F036FFA368DAB2D11C04EB40
:10F76000810014F821C01CF0040F0CF0040128D112
:10F7700004EB8202591CD2680592C9B204EB8101E4
:10F7800002F00302012AC96803F1020332D0022AFF
:10F79000BCD000215046CDE9011303F023FF0199AD
:10F7A0000028C3D14846C4E743880EEB9313DAB26E
:10F7B000D11C04EB810014F8211001F00401002990
:10F7C000D6D090F800C00CF0030CBCF1010F0BD0A8
:10F7D000BCF1020F03F1020E02F1030CE4D004EBC2
:10F7E0008C000029EDD1C3E702880233C2F38312F3
:10F7F0001344DCE7BDF81420C2F38312090C134450
:10F800008CE72B46DAB20332063340F205110020B2
:10F8100044F82210636003F09DFBA91C05F1030C62
:10F820002A1DC9B25FFA8CFC6B1D04EB810104EB4D
:10F830008C0CD2B20398C86004EB8202DBB2CCF825
:10F840000C7004EB8303129FD7600021139A1448B5
:10F85000DA6003F07DFE80F31000F1006B1C01F014
:10F86000380141F48071DBB2EDB204EB830341F067
:10F8700001010004033540EA164641EA8821DE60B2
:10F8800044F8251023781BB1FFF77EFB0028FBD13D
:10F89000FFF778FB09B0BDE8F08F00BF0816002025
:10F8A000241A00202DE9F043304ED6F810440546C6
:10F8B000002074B1234601E01B6853B1DB681A795C
:10F8C0008242F9D101300A28F3D14FF0FF30BDE870
:10F8D000F083EB681871D6F81034002B41D0DA6849
:10F8E000EB6812681A60D6F81034DB681D60204F90
:10F8F000204BFF1AFF08EAD01F4CDFF8808003F18D
:10F90000070C00224FF0070EEE681CF8323096F814
:10F91000049026688B4209EB490928BF0B4603FA7D
:10F9200009F373400EFA09F903EA09037340C3F3BC
:10F93000C206C3F382194E4538BF4E4603F007098D
:10F940004E4538BF4E46C3F342294E4538BF4E465A
:10F9500028F822600132BA4244F8043BD4D1BDE811
:10F96000F083C6F81054EA681360C0E70816002058
:10F97000A86E0200E86D0200F01200209212002032
:10F9800038B5084BD3F8104401251D704CB1E3681D
:10F990005D71236820465B689847E3681C68002C0B
:10F9A000F5D138BD0816002030B5C38885B00446AF
:10F9B0000D461BBB217A05291ED0627A82B9134AF3
:10F9C000A08852F8212003920021FFF7A1FA039AA0
:10F9D0000F490346284605B0BDE8304003F094BF08
:10F9E000A088FFF7B9FA0B4B0B4953F820202846A3
:10F9F00003F08AFF217AE2E705B030BD074A0092A2
:10FA00000749084A284603F07FFFD3E75062020007
:10FA1000B86102002C620200B4610200AC61020015
:10FA2000946102008C6102002DE9F04385B04FF033
:10FA3000000C0C9C814694F80C8084F80CC00E4697
:10FA40001746184621461D46FFF7AEFF062F09D878
:10FA5000DFE807F0042E343B444F1F0049462046A0
:10FA600003F052FF2B7A052B05D06B7A5BB927493F
:10FA7000204603F049FF204603F03AFF84F80C804B
:10FA800005B0BDE8F083224A2249204603F03CFF3E
:10FA9000EDE7D6E90413F2680393B3680291CDE968
:10FAA00000324946D6E90023204603F02DFFD9E76E
:10FAB00032684946204603F027FFD3E7D6E9002302
:10FAC0004946204603F020FFCCE7B3680093D6E90F
:10FAD00000234946204603F017FFC3E7D6E9023268
:10FAE00001920093D6E900234946204603F00CFF1B
:10FAF000B8E7D6E90321B3680291CDE9003249465F
:10FB0000D6E90023204603F0FFFEABE7C461020004
:10FB1000AC610200B4610200082900D970472DE9E8
:10FB2000F04F9B4683B000241B7B8BF80C400D46A6
:10FB300006465946104690460193DFF8D0902C4F68
:10FB4000FFF732FF05E0325D013403F0DDFE082CE3
:10FB500009D0A54239465846F5D84946013403F044
:10FB6000D3FE082CF5D12349DFF8A490224C234F73
:10FB7000584603F0C9FE4FF0000A0DE0D15D11F0C8
:10FB8000970F08BF2E22214658460AF1010A03F0BA
:10FB9000BBFEBAF1080F10D0554505D916F80A205A
:10FBA0007E2AEBD92E22EEE7494658460AF1010A91
:10FBB00003F0AAFEBAF1080FEED198F80830052B31
:10FBC00002D098F8093063B90D49584603F09CFEFD
:10FBD000584603F08DFE019B8BF80C3003B0BDE856
:10FBE000F08F084A0849584603F08EFEECE700BF44
:10FBF000C8610200D4610200D8610200A16C020059
:10FC0000C4610200AC610200B4610200D061020074
:10FC1000AC6D020008B500F009F904480421FFF7B3
:10FC200041FE034B01225A7108BD00BFA86E0200BD
:10FC30009C110020F0B595B000241D460E460846E4
:10FC4000174603F083FD304623460822099505A98F
:10FC50001A9D08970D950A948DF82C400C9403F08A
:10FC6000D9FD9DF814308DF81140DDE9061003F040
:10FC70000302012ACDE9020128D0022A04D030462D
:10FC800003F068FD15B0F0BDBDF81650C3F3C20314
:10FC90008DF81030C5F389150827082D2C4628BF8C
:10FCA00008243B4622460EA9304603F0B3FD2D1B27
:10FCB000214608AB02AA0EA82744FFF72DFF002D0E
:10FCC000EBD1304603F046FD15B0F0BDBDF8147021
:10FCD000059DC7F38312C3F3C2040EA930469200F8
:10FCE00008238DF81040C7F3831703F093FDC5F385
:10FCF000952508AB3A4628460EA9009302ABFFF7BC
:10FD000093FE304603F026FD15B0F0BD022904D065
:10FD1000032909D0012904D07047054B01221A702C
:10FD20007047044B19707047014B00221A707047DE
:10FD30004C1B0020901B0020704700BF08B50448F2
:10FD400000F002FF00B908BDBDE8084000F0C0B8EF
:10FD50007462020030B5044683B00D4601F010FC19
:10FD60000028FBD1044B0093044A29462046402337
:10FD7000FFF760FF03B030BDC9FD0100501B00203C
:10FD8000083808B5062805D8DFE800F00911150481
:10FD90000404050008BDBDE8084000F0D5BDFEF72D
:10FDA000D9FA0028F6D1BDE8084000F0CBBDBDE887
:10FDB000084000F009BEFEF7D7FA0028EAD1BDE8F6
:10FDC000084000F0C3BD00BF154B1B7833B32DE9CD
:10FDD000F0470025134CDFF850A088461746A94687
:10FDE0007E1B402E28BF4026324608EB05015046B8
:10FDF00084F8009002F010FC68B9237833B901F060
:10FE0000BFFB0028FBD12378002BF8D03544AF424C
:10FE1000E6D8BDE8F08700F05BF8EEE7704700BF7A
:10FE20004C1B0020901B00207462020010B51F4C78
:10FE3000237803B110BDFCF79FFAF8B1FCF7F2FA92
:10FE400048B303F057F81A4800F0BCFC30F0080340
:10FE500028D1184800F0EAFDD0B900F05BFDA0B948
:10FE6000FEF782FA38B901F08BFB0028FBD1FEF7D0
:10FE70007BFA0028F7D00123237010BDFCF782FA2B
:10FE80000028DBD000F024F8D8E700F021F8E7E7FD
:10FE900000F01EF8E1E7FCF797FAFCF7C3FA002838
:10FEA000FBD0CEE700F014F8D3E700BFC01A002063
:10FEB000986202007462020008B5044B1B781BB103
:10FEC00001F05EFB0028FBD108BD00BFC01A002076
:10FED00000B585B00346002101AA44F20100CDE936
:10FEE0000111039300F004F805B05DF804FB00BFB6
:10FEF00070B572B6FFF744FDFFF746F80028FBD156
:10FF0000184D6B88F3B9184B1B68DB070DD5174CE0
:10FF1000174E00BE6B88012B07D9A01BC008000438
:10FF2000144940F00200FFF771F9BFF34F8F1249F7
:10FF3000124BCA6802F4E0621343CB60BFF34F8FE9
:10FF400000BFFDE7094C0A4E0D49A01BC008000484
:10FF500040F00100FFF75AF9034B1B68DA07D9D5C7
:10FF6000D7E700BFA0120020F0ED00E0086E02000D
:10FF7000E86D0200FC62020000ED00E00400FA05FA
:10FF8000F0620200D0E90223D1E90201994208BFE0
:10FF900090422CBF01200020704700BF2DE9F04F98
:10FFA00087B0064603F002F940B1B04AD2E9003109
:10FFB00013F1807341F10001C2E9003100213046A4
:10FFC00003F010F9AA4C60B3236853B3A94B25681A
:10FFD0001B7823B31DB3A84803F014F9A34BA7491A
:10FFE000D3E90023D1E90089121843F100034B45FE
:10FFF00008BF424503D212F1807243F10003D5E9F4
:020000022000DC
:1000000002018B4208BF824280F05C81013108BF4F
:10001000B0F1FF3F03D09A48294603F03DFC00238E
:1000200023600121304603F0DDF8002840F02E81E6
:10003000944805A903F04CFA78B3924D4FF0FF387D
:100040004FF0FF390BE0002B00F0968005A9284601
:1000500003F06EFA05A9284603F03AFAE8B10378EE
:10006000012B11D0022BEED1854F384603F028FC2E
:1000700030B1C0E90289384603F022FC0028F8D1EB
:100080007C4B01221A70E1E741682368994200F035
:10009000B7807B4803F01EFCD8E7DFF8E481764F99
:1000A000DFF8C891404603F011FC002859D0D0E990
:1000B0000223591C08BFB2F1FF3F59D0216891B10A
:1000C0002168D1E902018B4208BF82424DD22368E8
:1000D000D3E90223013308BFB2F1FF3F03D0216807
:1000E000404603F0D9FB404603F0EAFB054638469C
:1000F000AA68EB680392029303F084F8D9E900AB95
:100100005E4BD3E900231AEB000A4BF1000B9B4531
:1001100008BF9245DDE9023203D21AF1807A4BF131
:10012000000BB2EB0A0163EB0B0301930091DDE9D5
:100130000001012871F100032BDBB0F5350F59D216
:100140004FF496030021384602F0AAFF00284BD056
:100150000D2822D000234046236003F0B7FB00287F
:10016000A5D12368002B00F0A98007B0BDE8F08F6F
:10017000404603F0A5FB95E74168D1E9022301332E
:1001800008BFB2F1FF3F3FF461AF3D4803F084FB8D
:100190005CE70021384603F019F8364B1B78002B3A
:1001A000D8D0384603F02EF8D9E900233349D1E9F5
:1001B00000AB121843F100035B4508BF524503D260
:1001C00012F1807243F10003D5E902018B4208BFAE
:1001D00082421CD2013108BFB0F1FF3FBAD029469C
:1001E000404603F059FBB5E7236863B1256007B0CB
:1001F000BDE8F08F384603F005F8234A02449FE734
:100200000023236022E7304602F01CFFEEE70020C7
:1002100002F098FE2B692BB94FF0FF324FF0FF33FD
:10022000C5E90223002002F095FED5E90530984784
:10023000002002F087FE2B699BB1D5E902014A1C20
:1002400008BFB0F1FF3F0CD0C01841F10001C5E973
:100250000201002002F07EFE2946404603F01CFB0E
:1002600078E7002002F076FE74E700BF981B0020BC
:10027000081C0020A01B0020BC110020001C002036
:1002800030630200A8110020FFFFB4002448254D70
:1002900002F0B8FF244BD3E90089D5E9002318EB1D
:1002A000000849F10009994508BF904503D218F1AB
:1002B000807849F10009C5E90089B9E6304602F0C5
:1002C000C5FE52E7002002F03DFE2B692BB94FF02E
:1002D000FF324FF0FF33C5E90223002002F03AFE5F
:1002E000D5E905309847002002F02CFE2B699BB120
:1002F000D5E902014F1C08BFB0F1FF3F0CD0C01878
:1003000041F10001C5E90201002002F023FE074887
:10031000294603F0C1FA82E6002002F01BFE7EE6C9
:10032000BC110020001C0020981B0020306302003C
:1003300010B5134B13491B68134882B05822019320
:10034000082303F06FF8044610B1204602B010BD38
:100350000E4A0F4801A902F007FE04460028F4D116
:100360000B48012102F018FF01231946094A0848E9
:1003700002F070FE084B012220461A7002B010BD38
:100380002C630200A41B0020A81100209DFF010087
:10039000BC110020FFFF7F00A01B00208AB130B4F9
:1003A000A1F101010368B1FA81F14FF0FF344FF080
:1003B000FF354909C3E90412C3E90245002030BCF6
:1003C00070470720704700BF2DE97043044682B094
:1003D000002016460D4602F0B5FDD4E90223013394
:1003E00008BFB2F1FF3F06D0002002F0B3FD0020AD
:1003F00002B0BDE870831D4802F004FF1C4B1D498C
:10040000D3E90023D1E90089121843F100034B45D9
:1004100008BF424524D3521943F10003C4E9022323
:10042000002002F097FD2369A66103B125611248FF
:1004300001A903F00FF878B100254460057001A907
:100440000D4803F035F80028D2D0084802F0DEFE4F
:10045000284602B0BDE87083042002B0BDE8708376
:1004600012F1807243F10003D5E700BFBC110020F8
:10047000981B0020001C0020A811002010B5044685
:1004800082B0002002F05EFDD4E90223013308BFF0
:10049000B2F1FF3F1AD04FF0FF324FF0FF33002090
:1004A000C4E9022302F056FD0E4801A902F0D2FF72
:1004B00048B101234460037001A90A4802F0F8FF23
:1004C00050B902B010BD042002B010BD002002F0EF
:1004D00041FD002002B010BD034802F097FE00204D
:1004E00002B010BDA8110020BC11002030B583B0AF
:1004F000124801A902F0AEFFF0B1114D0446286880
:100500002060002002F01EFD0E4B0F481B88026881
:1005100001339B1AE380002103F01AF8A080002029
:1005200002F018FD01A9054802F0C2FF074B1B6845
:1005300001460BB12846984703B030BDCC110020CE
:100540007C630200AC1C0020C81D0020101C002091
:1005500030B50378052B83B0044625D0002B30D16D
:100560002B4B1D683DB12B6860889B6898472B68B2
:100570005D68002DF7D1274D002002F0E3FC2B68C9
:1005800013B9254B62881A800121224802F0EEFF40
:10059000002002F0DFFC214B1B6813B12046012133
:1005A00098472B6803B030BD1D4BD3F88424D3F893
:1005B000803413F0FF0F04D11A4BD2B2052A08BFC2
:1005C0001C46194801A902F045FF05460028E9D05C
:1005D00023680360002002F0B5FC0F4B0D481B8818
:1005E000026801339B1AEB80002102F0B1FFA88062
:1005F000002002F0AFFC01A90B4802F059FF074BA5
:100600001B680146002BCDD02046984703B030BD73
:10061000C01D0020C81D0020AC1C0020101C0020A4
:100620000070024078630200CC11002070B50128F0
:1006300082B006D0022804462AD0002831D002B069
:1006400070BD2B4801A902F005FF04460028F6D032
:10065000284D28682060002002F074FC264B2748B3
:100660001B88026801339B1AE380002102F070FFAF
:10067000A080002002F06EFC01A91D4802F018FFC6
:100680001F4B1B680146002BD9D028469847D6E758
:10069000174801A902F0DEFE04460028CFD0194D0C
:1006A000D7E7134801A902F0D5FE05460028C6D0B9
:1006B000154E30682860204602F044FC0E4B0F486F
:1006C0001B88026801339B1AEB80214602F040FF31
:1006D000A880204602F03EFC01A9054802F0E8FE91
:1006E000074B1B680146002BA9D030469847A6E768
:1006F000CC11002070630200AC1C0020C81D00203B
:10070000101C0020746302006C6302002DE9F04F9E
:1007100087B0002504460F4690469946029500E0B2
:1007200001356268012356682146002202A8B047BD
:100730000028F5D18DF80600049065B38246834603
:100740000AE09DF806306668023B7668B0479DF87F
:1007500006309B445D451ED96268012356682146D8
:100760000DF1060204A8B0476268012356682146CD
:100770000DF1070204A8B0479DF80730BB424FF0C7
:100780000002214604A8DCD1D04508D00AF1010AB4
:100790005FFA8AFAD5E7052007B0BDE8F08F109A16
:1007A0009DF80630136089F8003089F8017061689F
:1007B000023B4D6809F102022146A847002007B01C
:1007C000BDE8F08F2DE9F047484982B0054608237F
:1007D00047484FF4847202F025FE002874D1454842
:1007E000FDF7BAF9044618B1204602B0BDE8F0871B
:1007F000414A4249424B14700C604822214641480C
:100800001C6004F0F1FB40482146482204F0ECFB58
:10081000002D63D095E807003C4B83E807000020DB
:10082000FBF750FE002854D1DFF8E4E09EF80830D2
:10083000002B58D0013BDBB20EF10C024FF0030944
:10084000DEF80480304D2F4F19FB03290EF1090CFF
:100850009CF80140CCB19CF802200CF10103134438
:10086000013C53FA84F4624412F8013B03F00F0197
:100870001B0605EBC10607EBC10A18D445F831E0A9
:100880009442D8F800307360EED10CF1030CCC45E3
:10089000DED10B238DF804301D48D8F8003001A9B3
:1008A0009847044600289FD0FDF7EAF99CE747F8EF
:1008B00031E09442D8F80030CAF80430D4D10CF1B9
:1008C000030CCC45C4D1E4E70324204602B0BDE8C4
:1008D000F0878528A8D0FFF7FBFAA5E70B4BC3E903
:1008E00000551D729BE7DEF80480D2E7B01C0020A3
:1008F000CC11002051050200CC1D0020B81D0020A5
:10090000BC1D00201C1C0020641C0020101C0020AA
:10091000C063020010B5FDF715FD68B1FDF71AFDC3
:10092000044648B90648FBF7E1FD034628B1FFF746
:10093000CFFA2346184610BD0823184610BD00BF45
:1009400068630200FDF7A6B9FDF7CEBA4FF0804309
:1009500003E0D3F83824D1072BD5D3F838249207F5
:10096000F7D530B583B0134801A902F073FD0446F2
:10097000E8B1114D28682060002002F0E3FA0F4B27
:100980000F481B88026801339B1AE380002102F0A4
:10099000DFFDA080002002F0DDFA01A9054802F089
:1009A00087FD084B1B6801460BB12846984703B0EA
:1009B00030BD7047CC11002080630200AC1C0020C9
:1009C000C81D0020101C002010B582B082231348DF
:1009D0008DF8003001A902F03DFDE8B10446009811
:1009E0002060002002F0AEFA0D4B0E481B88026812
:1009F00001339B1AE380002102F0AAFDA0800020B1
:100A000002F0A8FA01A9054802F052FD064B1B6846
:100A100001460BB16846984702B010BDCC110020CA
:100A2000AC1C0020C81D0020101C00202DE9F04344
:100A300090F8088083B0B8F1000F6CD008F1FF394E
:100A40005FFA89F300F10C024FF0030900F1090588
:100A5000DFF8E8C0DFF8ECE019FB032929464F78FE
:100A600000239F4201EB03021AD08C781657125DC7
:100A7000002E02F00F0408DB5CF834200133002A5A
:100A8000EFD0112003B0BDE8F08302F00F02013374
:100A90005EF83220002AF4D19F4201EB0302E4D138
:100AA00003314945DBD14FF0000E244FDFF894C0ED
:100AB000724602EB42022A44537833B300210B46BC
:100AC0000AE047F8340043681B68C8F804305478DB
:100AD0000131CBB29C4216D9947813441E571B5D4A
:100AE000002E03F00F0407EBC4080CEBC409E8DA8E
:100AF0004CF8340043681B68C9F80430547801315D
:100B0000CBB29C42E8D890F808800EF1010E5FFA53
:100B10008EF24245CDD30A4A13681BB11A68136896
:100B2000002BFBD1106043680B228DF804201B685A
:100B300001A9984703B0BDE8F08300BF641C002002
:100B4000B81D00201C1C002030B5474C236883B022
:100B5000002B00F08580054603E01C682368002B0D
:100B60007ED0AB42F9D16B680C228DF804201B6853
:100B700001A928469847002873D12A683B4B126880
:100B800022602A6810601A6895429A6808BFC3E913
:100B90000000954204BF0022C3E902221A6995426F
:100BA00004BF0022C3E904229A69954204BF0022CF
:100BB000C3E906221A6A954204BF0022C3E908224B
:100BC0009A6A954204BF0022C3E90A221A6B954231
:100BD00004BF0022C3E90C229A6B954204BF002295
:100BE000C3E90E221A6C954204BF0022C3E9102209
:100BF0001F4B1A68954204BF0022C3E900229A687D
:100C0000954204BF0022C3E902221A69954204BF3B
:100C10000022C3E904229A69954204BF0022C3E975
:100C200006221A6A954204BF0022C3E908229A6A82
:100C3000954204BF0022C3E90A221A6B954204BF01
:100C40000022C3E90C229A6B954204BF0022C3E93B
:100C50000E221A6C954204D10022C3E9102200E052
:100C6000052003B030BD00BFB81D00201C1C0020B3
:100C7000641C0020024B1878003818BF0120704710
:100C8000C41D0020030710B5044604D52046BDE866
:100C90001040FDF7DDBCFDF767FF2046FDF70AFFBA
:100CA0002046BDE81040FDF7D3BC00BFFDF73ABDBC
:100CB000014B1868704700BFB81D0020F0B40E4B00
:100CC0001F688FB13E7A96B100231C463A4602E077
:100CD000DCB2A6420BD9557A854203F1010302F139
:100CE0000302F5D101B10C703846F0BC70473B6887
:100CF0001F68002FE6D1F7E7B81D002043681146B2
:100D00001B68184700F00F03082B0AD802064CBFD7
:100D1000054A064A02EBC303186810B143681B6812
:100D200018471020704700BF1C1C0020641C0020C6
:100D300038B5094B1C6864B1054602E023681C689D
:100D40003CB1636829461B68204698470628F5D0C1
:100D500038BD062038BD00BFB81D002038B50D468F
:100D60000446FDF765FC18B1054B1B78022B01D03A
:100D7000082038BD29462046BDE83840FDF79EBD15
:100D8000CC1D002038B50D460446FDF751FC18B1C6
:100D9000054B1B78022B01D0082038BD2946204680
:100DA000BDE83840FDF71CBECC1D002070B543687F
:100DB0009B6882B006460C46154623B19847062824
:100DC00001D002B070BD4DBB337AA3422BD9093696
:100DD00004EB440174186678EEB12B46324606E007
:100DE0000135FDF735FCEBB29E4214D962789A4288
:100DF00016D9A3786219D05C0307F1D40190FDF7EE
:100E0000B3FE0198FDF756FE01350198FDF720FC71
:100E1000EBB2B342EAD3002002B070BD0720D0E7A6
:100E200000231B78FFDE6B78FFDE00BF43681B6981
:100E300003B11847184670472DE9F0432B4B1F6844
:100E400083B0002F49D097F80880B8F1000F40D048
:100E50000026344607F1090505E00136F4B2A04545
:100E600005F1030535D97B689B682BB1002221462B
:100E7000384698470628F0D13B7AA34230D995F8F6
:100E80000190B9F1000FE8D0002423464A4606E05D
:100E90000134FDF7DDFBE3B29945DED96A78934270
:100EA00021D2AB782A19D05C0307F1D40190FDF769
:100EB0005BFE0198FDF7FEFD01340198FDF7C8FBCC
:100EC000E3B24B45EAD30136F4B2A04505F1030580
:100ED000C9D83B681F68002FB5D103B0BDE8F083C7
:100EE00000235B78FFDE00231B78FFDEB81D0020A7
:100EF0002DE9F8431E4B1F68002F34D097F8089057
:100F0000B9F1000F2BD04FF00008454607F1090456
:100F10007B68DB6813B12946384698473B7AAB4279
:100F200023D966789EB100252B46324693420BD2D8
:100F3000A37862190135D05CFDF7F4FBEBB29E4259
:100F400005D962789342F3D300231B78FFDE08F1C2
:100F500001085FFA88F5A94504F10304D8D83B6875
:100F60001F68002FCAD1BDE8F88300235B78FFDE3D
:100F7000B81D002070B503780446852B00F2BF80B1
:100F8000DFE813F00002B201BE003A026602E3009D
:100F9000EA00BD00040117012A01BD00BD00BD002B
:100FA000BD003D01BD00BD00BD00BD00BD00BD00D8
:100FB000BD00BD00BD00BD00BD00BD00BD00BD0049
:100FC000BD00BD00BD00BD00BD00BD00BD00BD0039
:100FD000BD00BD00BD00BD00BD00BD00BD00BD0029
:100FE000BD00BD00BD00BD00BD00BD00BD00BD0019
:100FF000BD00BD00BD00BD00BD00BD00BD00BD0009
:10100000BD00BD00BD00BD00BD00BD00BD00BD00F8
:10101000BD00BD00BD00BD00BD00BD00BD00BD00E8
:10102000BD00BD00BD00BD00BD00BD00BD00BD00D8
:10103000BD00BD00BD00BD00BD00BD00BD00BD00C8
:10104000BD00BD00BD00BD00BD00BD00BD00BD00B8
:10105000BD00BD00BD00BD00BD00BD00BD00BD00A8
:10106000BD00BD00BD00BD00BD00BD00BD00BD0098
:10107000BD00BD00BD00BD00BD00BD00BD00BD0088
:10108000BD00BD005101860060011C02E301E300C8
:101090008C4B8D49D3E9000290478C4B1C684CB1B6
:1010A000894D636820461B682946984723681C6859
:1010B000002CF6D1864C63680BB10D209847FFF7E2
:1010C00017FF01F06DFB834B1B68002B00F0FD81C7
:1010D0000120814DFDF71CF82A78931EDBB2062B08
:1010E00000F215827D49CB5C13B1FBF7D1F92A7868
:1010F000022A40F00C82FDF771FA01232B7070BDBB
:10110000754D2A78931EDBB2062B00F2CD81734910
:10111000CB5C13B1FBF7BCF92A78022A40F0C481FA
:10112000FDF75CFA6A4B5B6803222A700BB1022060
:101130009847664B1D6845B16B6828461B68214679
:1011400098472B681D68002DF6D15E4B2146D3E9E8
:101150000002BDE87040104790F902308278002B01
:10116000B4BF5F4B574B02F00F0203EBC203D3E94E
:101170000002214690470028C1D0A0780207BED0C7
:101180000307BCD4BDE87040FDF788BC504B5B68DA
:101190000BB1082098474D4B1D68002DAFD06B68F0
:1011A00028461B68214698472B681D68002DF6D1FC
:1011B000A5E7474B5B680BB109209847434B1D6877
:1011C000002D9CD06B6828461B68214698472B68E9
:1011D0001D68002DF6D192E73D4B5B680BB10A20EC
:1011E00098473A4B1D68002D89D06B6828461B68CC
:1011F000214698472B681D68002DF6D17FE7344BB8
:101200005B680BB10F209847304B1D68002D3FF4F1
:1012100076AF6B6828461B68214698472B681D6887
:10122000002DF6D16BE72C4C2378062B00F04F8174
:1012300003F0FD03052B7FF462AFFDF7D9F902231C
:10124000237070BD244DFFF753FEFCF787FF2A780B
:10125000931EDBB2062B31D82049CB5C13B1FBF7D0
:1012600017F92A78022A29D1FDF7B8F9174B1C681B
:1012700000232B704CB11B4E636820461B6831461F
:10128000984723681C68002CF6D10E4B1549D3E90A
:10129000000290470E4B5B680BB10E2098472B78ED
:1012A000023BDBB2062B3FF62AAF0C4AD35C002B85
:1012B0003FF425AFBDE87040FBF7EAB8082AD5D166
:1012C000D2E700BF641C002084630200B81D002028
:1012D000101C0020BC1D0020CC1D002060630200FB
:1012E0001C1C0020886302009C4DFFF701FE01F0EA
:1012F0004DFA2A78931EDBB2062B00F2D98098496A
:10130000CB5C002B00F0D480022A03D0082A01D045
:10131000FDF76EF9934B5B6802222A700BB1012036
:101320009847914B2146D3E9000290478F4B1D68A7
:10133000002D3FF4E4AE6B6828461B6821469847B1
:101340002B681D68002DF6D170BD844D2B78032BC2
:1013500000F0C680FDF70AF900283FF4D0AE2A78E5
:10136000931EDBB2062B40F2EB808148FBF762F85C
:101370002A78022A01D0082A01D1FDF72FF9062385
:101380002B7070BD754B1B78032B00F0A580082BCC
:1013900000F0A280734B5B680BB100209847754B3F
:1013A0001D68002D3FF4ABAE6B6828461B682146D4
:1013B00098472B685D68002DF6D170BD674D2B787E
:1013C000032B7FF49CAEFCF7DDFF00283FF497AEC3
:1013D0002A78931EDBB2062B00F2BB806049CB5CFF
:1013E00013B1FBF755F82A78022A40F0B280FDF7D6
:1013F000F5F804232B7070BD584D2A78082A5CD06C
:10140000931EDBB2062B00F286805549CB5C002B85
:1014100000F08180022A00F0878005232B70514B59
:101420005B680BB1032098474F4B2146D3E900027C
:1014300090474E4B1D68002D3FF461AE6B68284607
:101440001B68214698472B681D68002DF6D170BD9A
:10145000444B5B680BB103209847434B4649D3E9A3
:1014600000029047414B1C684CB1434D63682046D5
:101470001B682946984723681C68002CF6D1374D15
:101480002B78062B1ED0082B0BD09A1ED2B2062A20
:101490004DD833498A5C002A49D0022B01D0FDF790
:1014A000A7F802232B7070BD082A7FF43BAE37E605
:1014B0002F48FAF7BFFF2A7826E702232B70FDF7A3
:1014C000A1F8ACE707232B7070BD207A01E6FDF789
:1014D0008FF80823237070BD2848FFF74BFD59E7AC
:1014E000FCF750FF00283FF435AF2A78931EDBB29B
:1014F000062B2BD81A49CB5C13B1FAF7C9FF2A780F
:10150000022A23D1FDF76AF804232B7022E7082A68
:101510007FF4F3ADEFE51648FAF78CFF2B78022B3A
:1015200002D0082B7FF479AFFDF758F875E7104823
:10153000FAF780FF2B78022BB3D0082BB1D0AEE79F
:101540000749CB5C002B7FF414AF0EE7082ADBD1F0
:10155000D8E7082A7FF44DAF49E700BFCC1D002033
:1015600060630200101C0020641C0020B81D0020D5
:10157000C4110020BC1D0020906302008C63020097
:1015800070B5284E82B03468002301930CB3A5884F
:10159000A5B1E388B3F5006F3ABF5A1C92B201229D
:1015A00005F1FF3528BF002301A8A580E280ADF832
:1015B0000630FFF7DFFC012002B070BD2046FFF7C8
:1015C000D9FC1949194801F0B3FF0120356002B078
:1015D00070BD1549154801F07BFF044630600028B6
:1015E000D5D1134B1B6813B9184602B070BD01F07A
:1015F000A9FC104A0E481388B3F5006F35BF5C1C78
:101600002346A4B2012401211480ADF8063001F074
:10161000C9FF002001F09EFC01A8FFF7ABFC0120F0
:10162000CAE700BFD01D00200C1C0020CC110020F8
:10163000C81D0020AC1C0020F0B504680E7A002CF8
:1016400000F07884A4F213347C2C00F2C5827C2C48
:1016500000F2C282DFE814F074020503E302D40250
:10166000CB0231030E032A03C002C002C002C00233
:10167000C002C0026702DC02C002C002C002C00297
:10168000CC011603EB02C002C002C002F401F40355
:101690009303C002C002C002C002FF00D1034F0387
:1016A000C002C002C002C002C002C0026402C00286
:1016B000C002C002C0021901A2039A03B2035E0372
:1016C000C002C002C9038B03BA0340036603C00211
:1016D000C0024803DB015703ED00C002C00239031A
:1016E000DB00FB03BD00C203C002C002C002C00297
:1016F000C002C002C002C002C002C002C002C002DA
:10170000C002C002C002C002C002C002C002C900C2
:10171000D903C002C002C0026E03C002C002C002F0
:10172000C002AC00C002C002C002C002AC00C002D5
:10173000C002C002C002C002C0027D00C402C002DA
:10174000C002C002C002B800C002C002C002C00293
:10175000B80001240025002A00F0D38307795755EB
:10176000A3424FF00005057140F28283171901343E
:101770003D70B04D0F7D2D682D78AF4200F0B683DF
:101780008F7DAF4209D10025A342057140F25585F6
:10179000254601340AB107795755DFF8A0C2A64F94
:1017A0009CF800503F780135EDB28CF800507BE199
:1017B000012500240AB1077917554024AB42047172
:1017C00040F28F836C1CC6E701240025002AE2D179
:1017D000E3E701240025002A40F037848D7D057160
:1017E000A34240F268830134FFE001250024002A6F
:1017F00000F0438307791755AB424FF0050404719D
:1018000040F28483274602EB050C6C1C03E30125A0
:101810000024002A40F017840624AB42047140F2F1
:10182000458301350C7D0471AB4240F297836C1CFB
:10183000D4E701250024002A40F009840524AB42A6
:10184000047140F22E836C1C2425A342057140F2E2
:101850007B83651CE0E701240025002A00F000845A
:10186000077957554FF0000CA34280F804C040F2AE
:101870009684651C0027AB4202F804C0077140F251
:10188000F983541901352770F3E001250024002A5B
:1018900000F0F58307791755AB424FF0240404712B
:1018A00040F2C783274605F1010C002463455755D4
:1018B000047140F2AF8325460CF101071024BB42AE
:1018C00002F80C50047140F29683254607F1010C92
:1018D00001246345D555047140F27E8325460CEB07
:1018E00004070524BB4202F80C50047140F26383E4
:1018F000254607F1010C24246345D555047140F2B7
:10190000508325460CF101070124BB4202F80C501C
:10191000047140F23C83254607EB040C0324634525
:10192000D555047140F22E830CF1010702F80C40EA
:10193000BB4291F816C080F804C040F21E837C1CA4
:101940000425A34202F807C0057140F2118302EB9F
:10195000040C2F46013424259C428CF8007005713C
:1019600080F001832F46651C1755AB424FF00204EF
:10197000047140F2A582274602EB050C6C1C02257F
:101980009C428CF80070057180F0E3822F46651C44
:101990001755AB424FF00504047140F2828227468E
:1019A00002EB050C6C1C2425A3428CF80070057119
:1019B00040F2CA822F46651C1755AB424FF0060411
:1019C000047140F27382571901353C700F7D077125
:1019D000AB4240F2C3826C1C5755A3428D7D05710A
:1019E00040F26982171901343D70124D2D6851E0A3
:1019F00001270024002A00F0468205791555BB42D4
:101A00004FF00004047140F2FB827D1C40E101258F
:101A10000024002A40F01D8302249D42047180F0BE
:101A20004F826C1C0225A342057140F29282651C14
:101A300004E700BFD81D0020D41D0020D61D0020C3
:101A400001240025002A00F09E8307795755A34200
:101A50004FF00205057140F25E83671C1555BB42CD
:101A60004C7E047140F2EA8202EB070C7D1C8CF87C
:101A700000400024AB42047140F227826C1C0AB182
:101A800007795755C94D91F814C02D682F78BC457A
:101A900000F02082DFF81CE3DFF81CC36F788EF8BB
:101AA000007000258CF80050BD423FD3C04F3D78F8
:101AB0000135EDB23D70B54280F0D0810925A342D9
:101AC000057140F25B83651C002A00F018830779DA
